:100000000C94D91E0C94191F0C94191F0C94191FD1
:100010000C94191F0C94191F0C94191F0C94191F80
:100020000C94191F0C94191F0C94191F0C94191F70
:100030000C94191F0C94191F0C94191F0C94191F60
:100040000C94191F0C94BA990C94191F0C94191F35
:100050000C94191F0C947F950C94191F0C94A3CA2F
:100060000C94191F0C9467660C945D660C94191F10
:100070000C94191F0C94191F0C94191F0C94191F20
:100080000C94191F0C94191F0C94191F0C94191F10
:100090000C94191F0C94191F0C94191F0C94191F00
:1000A0000C94191F0C94191F0C94191F0C94191FF0
:1000B0000C94191F0C94191F0C94191F0C94191FE0
:1000C0000C94191F0C94191F0C94191F0C94191FD0
:1000D0000C94191F0C94191F0C94191F0C94191FC0
:1000E0000C94191F084AD73B3BCE016E84BCBFFD60
:1000F000C12F3D6C74319ABD56833DDA3D00C77FF8
:1001000011BED9E4BB4C3E916BAAAABE0000008090
:100110003F05A84CCDB2D44EB93836A9020C50B91F
:10012000918688083CA6AAAA2ABE000000803F0744
:10013000634236B79BD8A71A39685618AEBAAB5582
:100140008C1D3CB7CC5763BD6DEDFD753EF6177247
:1001500031BF000000803F08000000BE9224491219
:100160003EABAAAA2ABECDCCCC4C3E00000080BE3D
:10017000ABAAAAAA3E00000000BF000000803F001A
:1001800000000000084178D3BB4387D1133D190E0E
:100190003CC3BD4282AD2B3E68EC8276BED98FE176
:1001A000A93E4C80EFFFBE01C4FF7F3F000000006E
:1001B00000000C94BA210C94755A0C94B8C90C9494
:1001C000621F0C94471F0C943E240C94FB2B0C9440
:1001D00052250C949A240C94AE890C94FE2C0C9409
:1001E000D95A0C9458840C9438880C940F470C946A
:1001F000D38A0C9410210C94D7570C94B5EB0C9423
:10020000FD5A0C9457280C94E33D0C944A250C9409
:100210003F3D0C94015B0C94B7290C94955A0C94B7
:1002200048250C947C4E0C94D73D0C94AEC90C948C
:100230001B1F0C946ABE0C9499C90C9443220C9415
:10024000BCC90C94D6830C9443240C942E280C9493
:10025000AE660C94C8230C947EC90C94423D0C9459
:10026000C6C90C94F7410C94E93D0C94A1C90C94B7
:100270006D3B0C94C0BD0C943D400C94B55A0C944D
:100280003B2C0C94FE230C941F2D0C94935A0C942D
:10029000D1880C9483C90C94812C0C94682C0C94F8
:1002A00039240C9444210C94C2C90C94B9280C94A0
:1002B000CAC90C947E210C9493BD0C94B4C90C94BF
:1002C000B8480C94FD4C0C94CC2C0C94013E0C942E
:1002D000D0C90C94C0890C94B0880C948C210C94D7
:1002E000E0280C94695A0C949DC90C944E250C94EA
:1002F000B2350C949A2C0C94672D0C94B75A0C942C
:1003000015890C94AA210C94C9570C9496240C942A
:100310003E1F0C94ED890C9430690C94DB5A0C94BC
:1003200005360C9497510C94C33E0C94FF5A0C94D0
:1003300095C90C94B95A0C9424360C9402250C944B
:10034000EF3D0C9493350C94AAC90C9406250C949B
:1003500043360C946A450C94AA850C942C870C9413
:10036000D4C90C942D2D0C949E240C942A210C9409
:1003700030890C94792F0C94BA2E0C94DD5A0C947D
:100380006A210C94E0F40C94C1BD0C9401240C94EB
:100390002F240C9450250C94332C0C94FB3D0C947E
:1003A00048240C9463310C9434240C949D4B0C948D
:1003B00046220C94172D0C94453D0C94F53D0C945D
:1003C00059840C9482510C94F8240C94DD3D0C94C7
:1003D0001B880C94B32C0C94E52C0C94BD210C942C
:1003E000A4C90C9454210C9490210C94252D0C94A8
:1003F0004C250C9489240C9437430C9446250C947A
:10040000B9244E414E494E495459494E46CDCCCC63
:100410003D0AD7233C17B7D13877CC2B329595E6D8
:10042000241FB14F0A000020410000C84200401CB8
:100430004620BCBE4CCA1B0E5AAEC59D74434F4DE0
:100440004D554E49434154494F4E0044525952551F
:100450004E004552524F525300494E464F004543BD
:10046000484F0041425300504C4100506C6561734D
:1004700065205265736574005052494E54455220B0
:1004800048414C5445440025533A202553004B49DC
:100490004C4C45442E20005072696E746572206881
:1004A000616C7465642E206B696C6C282920636113
:1004B0006C6C6564210A006563686F3A004572726E
:1004C0006F723A0020440020204D3230302053001B
:1004D000202844697361626C6564293A0046696C3E
:1004E000616D656E742073657474696E6773002046
:1004F000204D3230312058004D61782041636365D2
:100500006C65726174696F6E2028756E6974732FE3
:100510007332290020204D3230332058004D61784D
:10052000206665656472617465732028756E6974F0
:10053000732F73290020520020204D323034205078
:1005400000416363656C65726174696F6E20287524
:100550006E6974732F7332292028503C7072696E53
:10056000742D616363656C3E20523C7265747261E8
:1005700063742D616363656C3E20543C74726176D4
:10058000656C2D616363656C3E2900204A00205430
:100590000020530020204D32303520420041647647
:1005A000616E6365642028423C6D696E5F736567A8
:1005B0006D656E745F74696D655F75733E20533C45
:1005C0006D696E5F66656564726174653E20543C5A
:1005D0006D696E5F74726176656C5F666565647285
:1005E0006174653E204A3C6A756E635F6465763E61
:1005F000290020440020490020204D333031205074
:1006000000486F74656E6420504944002044002007
:10061000490020204D333034205000426564205082
:1006200049440020496E76616C6964206578747273
:1006300075646572200020746F6F206C6F6E672088
:10064000657874727573696F6E2070726576656E09
:100650007465640A0020636F6C6420657874727539
:1006600073696F6E2070726576656E7465640A00DA
:1006700047322F47332062616420706172616D657B
:10068000746572730A00536C6565702E2E2E0043DC
:100690006C69636B20746F20526573756D652E2EC7
:1006A0002E004E6F204D6F76652E00456E642066DD
:1006B000696C65206C6973740A00426567696E2015
:1006C00066696C65206C6973740A004E6F206D65F5
:1006D0006469610A00286E6F2066696C65290043B1
:1006E000757272656E742066696C653A20004E6F93
:1006F00074205344207072696E74696E670A0053E7
:1007000044207072696E74696E6720627974652026
:10071000002E0A0044656C6574696F6E206661691D
:100720006C65642C2046696C653A200046696C65EE
:100730002064656C657465643A00256973002569F9
:100740006D20256973002569682025696D2025695C
:100750007300256964202569682025696D20256955
:100760007300256979202569642025696820256939
:100770006D20256973005072696E742074696D650F
:100780003A20006F6B006F6666005E0459045204E5
:100790004B043D0444454255473A004D3131332026
:1007A0005300434B44203344205072696E74657289
:1007B000204F46462E00434F4E4649475F4558500E
:1007C0004F5254004D4541545041434B00434F4F0D
:1007D0004C45525F54454D50455241545552450089
:1007E0004348414D4245525F54454D504552415456
:1007F00055524500424142595354455050494E4785
:100800000041524353004D4F54494F4E5F4D4F44AA
:10081000455300544845524D414C5F50524F54454A
:100820004354494F4E00455854454E4445445F4D4E
:10083000323000435553544F4D5F4649524D574156
:1008400052455F55504C4F4144004C464E5F575205
:10085000495445004C4F4E475F46494C454E414D2B
:1008600045004155544F5245504F52545F53445FD9
:100870005354415455530053445F57524954450013
:10088000524550454154004D554C54495F564F4CCC
:10089000554D45005344434152440050524F4D5032
:1008A000545F535550504F525400484F53545F417A
:1008B0004354494F4E5F434F4D4D414E44530045C5
:1008C0004D455247454E43595F50415253455200A2
:1008D000434153455F4C494748545F42524947485A
:1008E000544E45535300544F47474C455F4C49477E
:1008F00048545300534F4654574152455F504F5749
:100900004552004255494C445F50455243454E5470
:10091000004C4556454C494E475F44415441005AAE
:100920005F50524F42450052554E4F55540041556D
:10093000544F4C4556454C005052494E545F4A4F17
:10094000420050524F4752455353004155544F5265
:1009500045504F52545F54454D50004155544F52ED
:1009600045504F52545F504F5300564F4C554D45D4
:100970005452494300454550524F4D0042494E4163
:1009800052595F46494C455F5452414E5346455279
:100990000053455249414C5F584F4E5F584F4646B1
:1009A000004649524D574152455F4E414D453A4DE3
:1009B00061726C696E20322E312E322E3120285316
:1009C000657020323420323032332031303A3032C8
:1009D0003A30362920534F555243455F434F4445E3
:1009E0005F55524C3A6769746875622E636F6D2F5C
:1009F0004D61726C696E4669726D776172652F4DDB
:100A000061726C696E2050524F544F434F4C5F5689
:100A1000455253494F4E3A312E30204D41434849BB
:100A20004E455F545950453A434B4420334420507F
:100A300072696E7465722045585452554445525F30
:100A4000434F554E543A3120555549443A636564F5
:100A500065326132662D343161322D343734382DB0
:100A6000396231322D633535633632663336376657
:100A700066002F2F004D31343520533C696E64657C
:100A8000783E206F7574206F662072616E676520F6
:100A900028302D31290A003F4A206F7574206F6677
:100AA0002072616E67652028302E303120746F20EF
:100AB000302E33290A002058004F4646004F4E0082
:100AC0003B200020204D61783A2000200020204D5E
:100AD000696E3A2000203B200020204D3231312029
:100AE0005300250A0046523A0020466C6F773A20A0
:100AF0000064697300656E0043290A0061626C65D9
:100B00006420286D696E2074656D702000436F6CE1
:100B10006420657874727564657320617265200065
:100B2000486F6D65202573204669727374004F66A7
:100B30006673657473204170706C696564004572FA
:100B4000723A20546F6F206661722100546F6F20DB
:100B50006661722066726F6D207265666572656E81
:100B6000636520706F696E740A00454550524F4DA1
:100B7000204F4B0A004D383400446F6E6520707270
:100B8000696E74696E672066696C650A004D373757
:100B9000004D333100496E76616C6964206578746C
:100BA00072756465720A0020204D3230362058007C
:100BB000486F6D65206F6666736574004361703AB7
:100BC0000020573A00436F6F6C696E672E2E2E001F
:100BD00045312025530020573A0042656420436F79
:100BE0006F6C696E672E2E2E004265642048656129
:100BF00074696E672E2E2E0023646566696E65200B
:100C000044454641554C545F0000626564004B64A6
:100C100020004B6920004B7020002066696E6973CC
:100C2000686564212050757420746865206C617358
:100C300074204B702C204B6920616E64204B642023
:100C4000636F6E7374616E74732066726F6D206271
:100C5000656C6F7720696E746F20436F6E6669678D
:100C600075726174696F6E2E680A005049442041A4
:100C700075746F74756E6500206661696C656421BA
:100C80002074696D656F75740A0050494420417580
:100C9000746F74756E6500206661696C65642120EF
:100CA00054656D706572617475726520746F6F2024
:100CB000686967680A00504944204175746F74750B
:100CC0006E6500504944204379636C657300255379
:100CD0002025692F256900204B643A2000204B69AC
:100CE0003A2000204B703A200020436C61737369F6
:100CF0006320504944200A00204E6F206F766572B1
:100D000073686F6F740A002054753A2000204B7589
:100D10003A2000206D61783A2000206D696E3A20FB
:100D20000020643A200020626961733A200048651F
:100D30006174696E672E2E2E002073746172740ABE
:100D400000504944204175746F74756E65002066CB
:100D500061696C6564212054656D7065726174759C
:100D6000726520746F6F20686967680A0050494493
:100D7000204175746F74756E65005049442041754B
:100D8000746F74756E6500206661696C65642120FE
:100D9000426164206865617465722069640A00506C
:100DA0004944204175746F74756E65004572723ADE
:100DB000207574663820666F6E74206E6F742069BB
:100DC0006E697469616C697A65642E004572723A65
:100DD000207574663820666F6E74206E6F7420699B
:100DE0006E697469616C697A65642E004572723A45
:100DF000207574663820666F6E74206E6F7420697B
:100E00006E697469616C697A65642E0020003A002D
:100E10003A002568753A2530326875002530326809
:100E2000753A2530326875002530326875272530CF
:100E300032687500256875642025303268753A255A
:100E4000303268750042656400456E636C6F73757F
:100E50007265004500200025002020202020202051
:100E6000002020202000657272001FE0201020105A
:100E70002010102010202010201030300840048056
:100E800003001FE03FF03FF03FF01FE01FE03FF0A6
:100E90003FF03FF00FC0078003003FFFF0380070C5
:100EA00030FC3020FC102078102030102C00D02E88
:100EB00031D02F7BD02F7BD02E31D02C00D02030C2
:100EC0001020781020FC1030FC303800703FFFF00C
:100ED0003FFFF03800703186302387102787902F2E
:100EE00087D02F03D02030102078102078102030A9
:100EF000102F03D02F87D02787902387103186307B
:100F00003800703FFFF01FFFF81FFFF80410400289
:100F100008200208200410400820801041001041E1
:100F2000000820800410400000001FFFF81FFFF899
:100F300003F1C1FFC00FF1C3FFF01FF1C7FFF83E7F
:100F400001CF007C7801DE001E7001FC000EF00174
:100F5000F8000FE001F00007E001E00007E001E029
:100F60000007E001F00007F001F8000F7001FC003D
:100F70000E7801DE001E3E01CF007C1FFFC787F800
:100F80000FFFC3C7F003FFC1C7C05072696E742062
:100F900041626F72746564004D3235005061757343
:100FA000696E672E2E2E004D3234003F0049676E69
:100FB0006F726500526573657400496E697469618A
:100FC0006C697A6520454550524F4D0046696C2E3C
:100FD000204469612E004520696E206D6D5E3300EE
:100FE00020082046616374002008204D61780020AD
:100FF00008204D696E004F6666004F6E00417574A3
:101000006F74656D70004D696E2054726176656C09
:10101000205370656564004D696E2056656C6F6382
:10102000697479004D6178204020537065656400D3
:101030004D6178204520416363656C004D617820E7
:101040004020416363656C0054726176656C204199
:101050006363656C005265747261637420416363FD
:10106000656C00416363656C004020737465707348
:101070002F6D6D00416476616E6365642053657405
:1010800074696E6773003F0043616E63656C00496D
:101090006E6974004D34323800496E697469616C50
:1010A000697A6520454550524F4D0046696C616D27
:1010B000656E740054656D7065726174757265005B
:1010C00053746570732F6D6D004A756E6374696F2C
:1010D0006E2044657600416363656C657261746976
:1010E0006F6E004D617820537065656420286D6DCA
:1010F0002F73290053657420486F6D65204F666615
:101100007365747300436F6E6669677572617469A5
:101110006F6E00426564004E6F7A7A6C65004661BE
:101120006E20537065656400436F6E666967757203
:101130006174696F6E00526573746F7265204465E7
:101140006661756C7473004C6F61642053657474D0
:10115000696E67730053746F7265205365747469A8
:101160006E67730050726568656174202420436F58
:101170006E6600416476616E6365642053657474C5
:10118000696E6773004D61696E003F004261636B79
:101190000053746F70004E6F204D6564696100509C
:1011A00072696E742066726F6D204D6564696100AE
:1011B0004368616E6765204D65646961004D323139
:1011C00000436F6E66696775726174696F6E005473
:1011D000656D7065726174757265004D6F74696FCD
:1011E0006E00526573756D65205072696E7400549F
:1011F000756E650053746F70205072696E74005084
:1012000061757365205072696E7400496E666F2057
:1012100053637265656E003F0053746172742050B1
:1012200072696E740043616E63656C005072696E22
:10123000740043616E6E6F7420656E746572207306
:1012400075626469723A200002202E2E004D616999
:101250006E002100486F74656E6420746F6F2063A8
:101260006F6C64004261636B0050726F636565640C
:10127000004D6F7665204578747275646572004F15
:101280006666004F6E00536F667420456E6473741B
:101290006F7073004D6F74696F6E004469736162A3
:1012A0006C65205374657070657273004D3834003E
:1012B0004175746F20486F6D6500473238004D618D
:1012C000696E00507265686561742024204265640F
:1012D0000050726568656174202420456E64005476
:1012E000656D7065726174757265006704630443AF
:1012F0006F6F6C646F776E00507265686561742003
:10130000240046616E205370656564004265640088
:101310004E6F7A7A6C65004D61696E00466C6F772E
:101320000046616E20537065656400426564004E3E
:101330006F7A7A6C65005370656564004D61696E03
:1013400000000C0F00FE07022503BB017FFE08FE14
:1013500008FE05080806000040F0C8888898781044
:10136000050808060000C0F88888888888F8050500
:10137000050600012030F83020050808060000208E
:1013800070F820202020E00509090600FF2070A841
:10139000A8B888887020070505070001D86C366C4E
:1013A000D80509090600FFF8A88888888888A8F861
:1013B000050A0A0600FE205050505088A8A88870E0
:1013C00003030306000340A040FFFFFFFFFFFFFFF2
:1013D000FFFFFFFFFFFFFFFFFFFFFFFFFFFFFF001C
:1013E00000000605FF01070706020080808080805C
:1013F0000080030303060105A0A0A0050606060061
:101400000050F85050F8500509090600FF2070A858
:10141000A07028A87020050707060000C8C8102083
:1014200040989805070706000040A0A040A89068D3
:101430000103030602058080800309090601FF20DD
:1014400040408080804040200309090601FF804021
:101450004020202040408005070706000020A8709B
:101460002070A8200505050600012020F820200294
:1014700003030601FFC04080050101060003F802D6
:101480000202060100C0C005070706000008101090
:1014900020404080050707060000708898A8C8888B
:1014A0007003070706010040C040404040E00507C8
:1014B00007060000708808102040F805070706009E
:1014C00000F8081030088870050707060000103083
:1014D0005090F81010050707060000F880F0080883
:1014E0008870050707060000304080F08888700586
:1014F0000707060000F8081010202020050707063F
:1015000000007088887088887005070706000070E2
:10151000888878081060020505060100C0C000C078
:10152000C00206060601FFC0C000C04080030505DA
:101530000601012040804020050303060002F80058
:10154000F8030505060101804020408005070706D5
:10155000000070881020200020050707060000709A
:1015600088B8A8B88070050707060000708888F85A
:10157000888888050707060000F04848704848F04A
:1015800005070706000070888080808870050707BF
:10159000060000F04848484848F0050707060000E4
:1015A000F88080F08080F8050707060000F880804A
:1015B000F08080800507070600007088808098888A
:1015C00070050707060000888888F8888888030760
:1015D00007060100E04040404040E00507070600E4
:1015E0000038101010109060050707060000889062
:1015F000A0C0A0908805070706000080808080803A
:1016000080F805070706000088D8A888888888051C
:1016100007070600008888C8A89888880507070675
:10162000000070888888888870050707060000F029
:101630008888F08080800507070600007088888809
:10164000A89068050707060000F08888F0A0908839
:101650000507070600007088807008887005070776
:10166000060000F8202020202020050707060000A3
:101670008888888888887005070706000088888819
:101680008850502005070706000088888888A8A889
:1016900050050707060000888850205088880507F5
:1016A0000706000088885020202020050707060034
:1016B00000F80810204080F80309090601FFE080C7
:1016C000808080808080E005070706000080404021
:1016D000201010080309090601FFE0202020202027
:1016E0002020E005030306000520508805010106BF
:1016F00000FEF803030306010580402005050506EA
:10170000000070087888780507070600008080F0E0
:10171000888888F0050505060000708080887005BF
:1017200007070600000808788888887805050506F8
:1017300000007088F0807005070706000030484000
:10174000E04040400507070600FE7088888878085A
:10175000700507070600008080F0888888880307E6
:10176000070601004000C0404040E00409090601AE
:10177000FE100030101010109060050707060000E2
:1017800080808890E09088030707060100C04040F1
:10179000404040E0050505060000D0A8A8A8A8051F
:1017A0000505060000B0C888888805050506000004
:1017B00070888888700507070600FEF0888888F022
:1017C00080800507070600FE788888887808080565
:1017D0000505060000B0C8808080050505060000EC
:1017E00078807008F00507070600002020F8202008
:1017F00020180505050600008888889868050505F5
:1018000006000088888850200505050600008888A5
:10181000A8A8500505050600008850205088050737
:10182000070600FE888888502040800505050600D0
:1018300000F8102040F80309090601FF204040404D
:1018400080404040200109090602FF80808080809E
:10185000808080800309090601FF804040402040CD
:1018600040408005030306000248A890FF457272BD
:101870003A20454550524F4D20436F727275707437
:10188000004572723A20454550524F4D2043524315
:10189000004572723A20454550524F4D2053697AA7
:1018A00065004572723A20454550524F4D205665AD
:1018B0007273696F6E006F70656E005452494747CE
:1018C00045524544003A20007A5F6D6178007A5FA6
:1018D0006D696E00795F6D617800795F6D696E008A
:1018E000785F6D617800785F6D696E005265706F2A
:1018F0007274696E6720656E6473746F70207374A0
:10190000617475730A000000000000000000008090
:10191000C0435761726E696E673A20486F6D696E99
:10192000672042756D702044697669736F72203C40
:1019300020310A000A0A0400009643000096430082
:1019400080C0430000A0400000A040000000400014
:101950000000010000000100008000555555000006
:1019600000400033333300AAAA2A00499224000021
:10197000002000C7711C0099991900D14517005526
:101980005515003BB113002449120011111100003C
:101990000010000F0F0F00E3380E0043790D00CC4C
:1019A000CC0C00C3300C00E8A20B0064210B00AA91
:1019B000AA0A00703D0A009DD80900427B090092E6
:1019C000240900DCD30800888808001042080000C1
:1019D000000800F0C10700878707007550070071F5
:1019E0001C07003EEB0600A1BC06006990060066DD
:1019F000660600703E06006118060017F4050074C4
:101A0000D105005BB00500B290050062720500557B
:101A100055050078390500B81E0500050505004E7E
:101A2000EC040087D40400A1BD040090A704004981
:101A3000920400C17D0400EE690400C7560400440E
:101A40004404005C3204000821040041100400003A
:101A50000004003FF00300F8E0030026D20300C3B7
:101A6000C30300CCB503003AA803000A9B03003867
:101A70008E0300C08103009F750300D069030050EE
:101A80005E03001D53030034480300913D030033FF
:101A900033030016290300381F0300971503003095
:101AA0000C0300030303000BFA020049F10200BA21
:101AB000E802005CE002002DD802002DD00200599F
:101AC000C80200B0C0020031B90200DAB10200AAB7
:101AD000AA0200A0A30200BC9C0200FA9502005CCE
:101AE0008F0200DF88020082820200457C0200270C
:101AF00076020027700200436A02007C640200D074
:101B00005E02003F590200C8530200FFFDFCFAF8D4
:101B1000F6F4F2F0EEECEAE9E7E5E3E1E0DEDCDA48
:101B2000D9D7D5D4D2D0CFCDCBCAC8C7C5C3C2C0F0
:101B3000BFBDBCBAB9B7B6B4B3B2B0AFADACAAA969
:101B4000A8A6A5A4A2A1A09E9D9C9A9998979594B9
:101B50009392908F8E8D8B8A8988878684838281E9
:101B6000807F7E7D7B7A79787776757473727170F9
:101B70006F6E6D6C6B6A69686766656463626160ED
:101B80005F5E5D5C5B5A59585857565554535251D5
:101B900050504F4E4D4C4B4A4A49484746464544A3
:101BA00043424241403F3E3E3D3C3B3B3A39383860
:101BB00037363535343332323130302F2E2E2D2C0E
:101BC0002B2B2A29292827272625252423232221B0
:101BD0002120201F1E1E1D1C1C1B1B1A1919181842
:101BE000171616151514131312121111100F0F0ECC
:101BF0000E0D0D0C0C0B0A0A09090808070706064A
:101C000005050404030302020100000000964300DE
:101C10000096430080C04300000000000000000068
:101C200000000053657474696E67732053746F729B
:101C3000656400290A002062797465733B20637231
:101C400063200053657474696E67732053746F72F8
:101C5000656420280048617264636F646564204491
:101C6000656661756C742053657474696E67732062
:101C70004C6F616465640020286D6D29002028691F
:101C80006E290020460020420020480020204D31CF
:101C900034352053004D6174657269616C2068654C
:101CA0006174757020706172616D65746572730026
:101CB00020204D3134392043203B20556E69747308
:101CC00020696E2043656C736975730A0054656DF5
:101CD000706572617475726520556E697473002049
:101CE0003B0020204732004C696E65617220556EC2
:101CF00069747300454550524F4D2064617461739F
:101D0000697A65206572726F722E0A0020286361FD
:101D10006C63756C6174656429210A0020213D2083
:101D200000454550524F4D20435243206D69736D1D
:101D300061746368202D202873746F726564292094
:101D400000454550524F4D20436F72727570740AB2
:101D5000002053697A653A2000496E6465783A201C
:101D600000290A002062797465733B206372632046
:101D7000002073746F7265642073657474696E6794
:101D800073207265747269657665642028000000AE
:101D9000FA430000FA430000A0400000C8410000E0
:101DA0002043000020430000A0443333394328235C
:101DB0000000282300006400000010270000204DD0
:101DC00061726C696E3D563838290A00454550529B
:101DD0004F4D2076657273696F6E206D69736D610A
:101DE0007463682028454550524F4D3D0020436F95
:101DF000756E7420583A0042656400453100450014
:101E0000626564002C2073797374656D2073746F40
:101E10007070656421204865617465725F49443A59
:101E200020004572723A204D415854454D50004DA6
:101E3000415854454D5020747269676765726564F6
:101E40000048656174696E67204661696C6564006D
:101E500048656174696E67206661696C65640045F8
:101E600072723A204D494E54454D50004D494E54E2
:101E7000454D502074726967676572656400544807
:101E800045524D414C2052554E41574159005468DE
:101E900065726D616C2052756E6177617900202FDB
:101EA000002042403A0020403A0000002100240077
:101EB00027002A002D00300033000101000004013A
:101EC00007010A017C3C3E5E2B3D3F2F5B5D3B2CB6
:101ED0002A225C004D6564696120496E6974204660
:101EE00061696C0053442063617264206F6B0A0067
:101EF0006F70656E526F6F74206661696C65640AFD
:101F000000766F6C756D652E696E69742066616907
:101F10006C65640A004E6F20534420636172640A4A
:101F200000534420636172642072656C656173655F
:101F3000640A000A4D3234004D3233202573002EDE
:101F40000A006F70656E206661696C65642C2046BE
:101F5000696C653A200046696C652073656C656341
:101F60007465640A002053697A653A200046696CFA
:101F700065206F70656E65643A2000454E442053BD
:101F80005542524F5554494E450A002220706F73F6
:101F9000002220706172656E743A220053554252DD
:101FA0004F5554494E452043414C4C207461726753
:101FB00065743A220053756263616C6C204F7665DC
:101FC00072666C6F77004578636565646564206D43
:101FD000617820535542524F5554494E452064650F
:101FE0007074683A0001FFFFFFFFFFFFFFFFFFFF74
:101FF000FFFFFF0FFFFFFFFFFFFFFFFFFFFFFFFFE1
:10200000FF1E0000000000000000000007FFFF3876
:102010000000000000000000000003FFFF7000004F
:10202000000000000000000001FFFF600000000051
:1020300000000000000000FFFF6000000000000042
:1020400000000000007FFFC0000000000000000052
:102050007800003FFFC00FC0FC00000000007818AF
:10206000001FFFC03FE1FF0000000000783C000FB0
:10207000FFC07FF3FF8000000000783C0007FFC036
:10208000FFFFFFC000000000783C0003FFC1F87FA5
:1020900087E00000000078000001FFC1F03F03E08E
:1020A0000000000078000000FFC1E01E01E01F00FA
:1020B00003E0783C03F07FC1E01E01E07FC00FF831
:1020C000783C07FC3FC1E01E01E1FFE01FFC783CCB
:1020D0000FFE1FC1E01E01E3FFF03FFE783C1FFE34
:1020E0000FC1E01E01E3F3F83F3E783C3F3F07C1DC
:1020F000E01E01E7E0FC7C1F783C3E1F03C1E01EB0
:1021000001E7C07C7C0F783C3C0F03C1E01E01E777
:10211000807C780F783C3C0F03C1E01E01E7803CD7
:102120007800783C3C0F03C1E01E01E7803C78005A
:10213000783C3C0F03C1E01E01E7803C7800783C0E
:102140003C0F03C1E01E01E7C03C7800783C3C0F27
:1021500003C1E01E01E3E03C78007C3C3C0F03C17E
:10216000E01E01E3FF3FF8007FBC3C0F03C1E01E0F
:1021700001E1FF3FF8003FBFFC0F03C1E01E01E09B
:10218000FF3FF8001FBFFC0F03C1E01E01E07F3FCF
:10219000F8000FBFFC0F036000000000000000000B
:1021A00000000000076000000000000000000000C8
:1021B00000000670000000000000000000000000A9
:1021C0000E380000000000000000000000001C1E8F
:1021D000000000000000000000000000780FFFFF7A
:1021E000FFFFFFFFFFFFFFFFFFFFF001FFFFFFFF0C
:1021F000FFFFFFFFFFFFFFFF8001FFFFFFFFFFFF6C
:10220000FFFFFFFFFFFFFF0FFFFFFFFFFFFFFFFFCE
:10221000FFFFFFFFFF1E00000000000000000000A5
:1022200007FFFF380000000000000000000003FF6F
:10223000FF700000000000000000000001FFFF60D0
:102240000000000000000000000000FFFF60000030
:102250000000000000000000007FFFC00000000040
:10226000000000007800003FFFC00FC0FC0000002D
:1022700000007818001FFFC03FE1FF0000000000D1
:10228000783C000FFFC07FF3FF8000000000783C27
:102290000007FFC0FFFFFFC000000000783C000304
:1022A000FFC1F87F87E00000000078000001FFC157
:1022B000F03F03E00000000078000000FFC1E01ED6
:1022C00001E01F0003E0783C00007FC1E01E01E058
:1022D0007FC00FF8783C00003FC1E01E01E1FFE045
:1022E0001FFC783C00001FC1E01E01E3FFF03FFE31
:1022F000783C00000FC1E01E01E3F3F83F3E783C5C
:10230000000007C1E01E01E7E0FC7C1F783C0000F4
:1023100003C1E01E01E7C07C7C0F783C000003C1D4
:10232000E01E01E7807C780F783C000003C1E01ECE
:1023300001E7803C7800783C000003C1E01E01E723
:10234000803C7800783C000003C1E01E01E7803C3F
:102350007800783C000003C1E01E01E7C03C780033
:10236000783C000003C1E01E01E3E03C78007C3CC7
:10237000000003C1E01E01E3FF3FF8007FBC000046
:1023800003C1E01E01E1FF3FF8003FBF000003C1B1
:10239000E01E01E0FF3FF8001FBF000003C1E01E88
:1023A00001E07F3FF8000FBF000003600000000065
:1023B00000000000000000000760000000000000B6
:1023C0000000000000000670000000000000000097
:1023D000000000000E3800000000000000000000B7
:1023E00000001C1E000000000000000000000000B3
:1023F000780FFFFFFFFFFFFFFFFFFFFFFFFFF00171
:10240000FFFFFFFFFFFFFFFFFFFFFFFF8001FFFF59
:10241000FFFFFFFFFFFFFFFFFFFFFF0FFFFFFFFFBC
:10242000FFFFFFFFFFFFFFFFFF1E00000000000097
:102430000000000007FFFF3800000000000000005F
:10244000000003FFFF70000000000000000000001B
:1024500001FFFF600000000000000000000000FF1E
:10246000FF6000000000000000000000007FFFC0CF
:1024700000000000000000007800003FFFC00FC017
:10248000FC00000000007800001FFFC03FE1FF00DB
:10249000000000007800000FFFC07FF3FF80000005
:1024A000000078000007FFC0FFFFFFC00000000031
:1024B00078000003FFC1F87F87E00000000078008B
:1024C0000001FFC1F03F03E00000000078000000C1
:1024D000FFC1E01E01E01F0003E0780000007FC1A3
:1024E000E01E01E07FC00FF8780000003FC1E01E51
:1024F00001E1FFE01FFC780000001FC1E01E01E3C6
:10250000FFF03FFE780000000FC1E01E01E3F3F88A
:102510003F3E7800000007C1E01E01E7E0FC7C1FA1
:102520007800000003C1E01E01E7C07C7C0F78004A
:10253000000003C1E01E01E7807C780F78000000F6
:1025400003C1E01E01E7803C78007800000003C171
:10255000E01E01E7803C78007800000003C1E01E27
:1025600001E7803C78007800000003C1E01E01E72D
:10257000C03C78007800000003C1E01E01E3E03CAD
:1025800078007C00000003C1E01E01E3FF3FF8007B
:102590007F00000003C1E01E01E1FF3FF8003F00A3
:1025A000000003C1E01E01E0FF3FF8001F00000033
:1025B00003C1E01E01E07F3FF8000F000000036050
:1025C00000000000000000000000000007600000A4
:1025D0000000000000000000000006700000000085
:1025E00000000000000000000E38000000000000A5
:1025F0000000000000001C1E0000000000000000A1
:1026000000000000780FFFFFFFFFFFFFFFFFFFFF4D
:10261000FFFFF001FFFFFFFFFFFFFFFFFFFFFFFFD7
:102620008001FFFFFFFFFFFFFFFFFFFFFFFFFF0F27
:10263000FFFFFFFFFFFFFFFFFFFFFFFFFF1E000089
:10264000000000000000000007FFFF38000000004D
:1026500000000000000003FFFF7000000000000009
:102660000000000001FFFF6000000000000000000B
:10267000000000FFFF6000000000000000000000FC
:10268000007FFFC000000000000000000000003FCD
:10269000FFC00FC0FC00000000000000001FFFC0D2
:1026A0003FE1FF00000000000000000FFFC07FF3CB
:1026B000FF800000000000000007FFC0FFFFFFC018
:1026C0000000000000000003FFC1F87F87E0000069
:1026D000000000000001FFC1F03F03E00000000027
:1026E00000000000FFC1E01E01E01F0003E0000049
:1026F00000007FC1E01E01E07FC00FF80000000075
:102700003FC1E01E01E1FFE01FFC000000001FC10F
:10271000E01E01E3FFF03FFE000000000FC1E01EDD
:1027200001E3F3F83F3E0000000007C1E01E01E7AF
:10273000E0FC7C1F0000000003C1E01E01E7C07C3C
:102740007C0F0000000003C1E01E01E7807C780FD1
:102750000000000003C1E01E01E7803C780000009B
:10276000000003C1E01E01E7803C7800000000008B
:1027700003C1E01E01E7803C78000000000003C1B7
:10278000E01E01E7C03C78000000000003C1E01E2D
:1027900001E3E03C78000000000003C1E01E01E31B
:1027A000FF3FF8000000000003C1E01E01E1FF3F11
:1027B000F8000000000003C1E01E01E0FF3FF80048
:1027C0000000000003C1E01E01E07F3FF8000000B0
:1027D0000000036000000000000000000000000096
:1027E000076000000000000000000000000006700C
:1027F0000000000000000000000000000E38000093
:10280000000000000000000000001C1E000000008E
:102810000000000000000000780FFFFFFFFFFFFF37
:10282000FFFFFFFFFFFFF001FFFFFFFFFFFFFFFFC5
:10283000FFFFFFFF8001FFFFFFFFFFFFFFFFFFFF25
:10284000FFFFFF0FFFFFFFFFFFFFFFFFFFFFFFFF88
:10285000FF1E0000000000000000000007FFFF381E
:102860000000000000000000000003FFFF700000F7
:10287000000000000000000001FFFF6000000000F9
:1028800000000000000000FFFF60000000000000EA
:1028900000000000007FFFC00000000000000000FA
:1028A0000000003FFFC00FC0FC000000000000005F
:1028B000001FFFC03FE1FF00000000000000000F0C
:1028C000FFC07FF3FF800000000000000007FFC092
:1028D000FFFFFFC00000000000000003FFC1F87F01
:1028E00087E00000000000000001FFC1F03F03E0AE
:1028F0000000000000000000FFC1E01E01E01F001A
:102900000000000000007FC1E01E01E07FC0000069
:10291000000000003FC1E01E01E1FFE000000000F8
:1029200000001FC1E01E01E3FFF0000000000000F6
:102930000FC1E01E01E3F3F800000000000007C132
:10294000E01E01E7E0FC00000000000003C1E01E03
:1029500001E7C07C00000000000003C1E01E01E7A9
:10296000807C00000000000003C1E01E01E7803C05
:1029700000000000000003C1E01E01E7803C0000F1
:102980000000000003C1E01E01E7803C00000000E1
:10299000000003C1E01E01E7C03C00000000000091
:1029A00003C1E01E01E3E03C00000000000003C1A1
:1029B000E01E01E3FF3F00000000000003C1E01E35
:1029C00001E1FF3F00000000000003C1E01E01E044
:1029D000FF3F00000000000003C1E01E01E07F3F58
:1029E0000000000000000360000000000000000084
:1029F0000000000007600000000000000000000070
:102A00000000067000000000000000000000000050
:102A10000E380000000000000000000000001C1E36
:102A2000000000000000000000000000780FFFFF21
:102A3000FFFFFFFFFFFFFFFFFFFFF001FFFFFFFFB3
:102A4000FFFFFFFFFFFFFFFF8001FFFFFFFFFFFF13
:102A5000FFFFFFFFFFFFFF0FFFFFFFFFFFFFFFFF76
:102A6000FFFFFFFFFF1E000000000000000000004D
:102A700007FFFF380000000000000000000003FF17
:102A8000FF700000000000000000000001FFFF6078
:102A90000000000000000000000000FFFF600000D8
:102AA0000000000000000000007FFFC000000000E8
:102AB000000000000000003FFFC00FC0FC0000004D
:102AC00000000000001FFFC03FE1FF000000000009
:102AD0000000000FFFC07FF3FF8000000000000037
:102AE0000007FFC0FFFFFFC0000000000000000360
:102AF000FFC1F87F87E00000000000000001FFC177
:102B0000F03F03E00000000000000000FFC1E01EF5
:102B100001E000000000000000007FC1E01E01E0B5
:102B200000000000000000003FC1E01E01E00000C6
:102B30000000000000001FC1E01E01E000000000D6
:102B4000000000000FC1E01E01E0000000000000D6
:102B5000000007C1E01E01E00000000000000000CE
:102B600003C1E01E01E0000000000000000003C1FE
:102B7000E01E01E0000000000000000003C1E01EB4
:102B800001E0000000000000000003C1E01E01E0C1
:102B9000000000000000000003C1E01E01E0000092
:102BA00000000000000003C1E01E01E00000000082
:102BB0000000000003C1E01E01E000000000000072
:102BC000000003C1E01E01E0000000000000000062
:102BD00003C1E01E01E0000000000000000003C18E
:102BE000E01E01E0000000000000000003C1E01E44
:102BF00001E0000000000000000003600000000091
:102C0000000000000000000007600000000000005D
:102C1000000000000000067000000000000000003E
:102C2000000000000E38000000000000000000005E
:102C300000001C1E0000000000000000000000005A
:102C4000780FFFFFFFFFFFFFFFFFFFFFFFFFF00118
:102C5000FFFFFFFFFFFFFFFFFFFFFFFF8001FFFF01
:102C6000FFFFFFFFFFFFFFFFFFFFFF0FFFFFFFFF64
:102C7000FFFFFFFFFFFFFFFFFF1E0000000000003F
:102C80000000000007FFFF38000000000000000007
:102C9000000003FFFF7000000000000000000000C3
:102CA00001FFFF600000000000000000000000FFC6
:102CB000FF6000000000000000000000007FFFC077
:102CC00000000000000000000000003FFFC0000006
:102CD0000000000000000000001FFFC00000000016
:102CE000000000000000000FFFC000000000000016
:102CF000000000000007FFC000000000000000000E
:102D000000000003FFC00000000000000000000001
:102D10000001FFC0000000000000000000000000F3
:102D2000FFC00000000000000000000000007FC0A5
:102D30000000000000000000000000003FC0000094
:102D4000000000000000000000001FC000000000A4
:102D500000000000000000000FC0000000000000A4
:102D600000000000000007C000000000000000009C
:102D70000000000003C00000000000000000000090
:102D8000000003C000000000000000000000000080
:102D900003C000000000000000000000000003C0AD
:102DA00000000000000000000000000003C0000060
:102DB0000000000000000000000003C00000000050
:102DC000000000000000000003C000000000000040
:102DD00000000000000003C0000000000000000030
:102DE0000000000003C00000000000000000000020
:102DF000000003C000000000000000000000000010
:102E000003C000000000000000000000000003609C
:102E1000000000000000000000000000076000004B
:102E2000000000000000000000000670000000002C
:102E300000000000000000000E380000000000004C
:102E40000000000000001C1E000000000000000048
:102E500000000000780FFFFFFFFFFFFFFFFFFFFFF5
:102E6000FFFFF001FFFFFFFFFFFFFFFFFFFFFFFF7F
:102E70008057726974696E6720746F2066696C652B
:102E80003A2000667265736800646F696E6700209F
:102E900066696C653A20004E6F7720002F6175746B
:102EA0006F25632E67006D61726C696E66772E6F99
:102EB000726700322E312E322E31005D2C492A35B8
:102EC0002821260D24F921E51F1000C90210012C2C
:102ED000014001220170011801B0010E01F001044E
:102EE000015002FA00B002F0003003E600D003DC2B
:102EF000009004D2007005C800A006BE000008B40F
:102F000000B009AA00D00BA000600E960060118CE2
:102F1000000015820020197800C01D6E00A02264F8
:102F200000B0275A00902C500000314600E0343C9D
:102F30000010383200903A2800603C1E00A03D147A
:102F400000803E0A00203F00002020506C616E6E21
:102F5000657242756666657242797465733A2000DF
:102F60002046726565204D656D6F72793A200020AC
:102F7000436F6D70696C65643A205365702032341C
:102F800020323032330A00204C6173742055706453
:102F9000617465643A20323032332D30352D31364C
:102FA000207C20417574686F723A2028434B44207E
:102FB0002D2030393038393834303130290A004D3D
:102FC00061726C696E20322E312E322E310A002051
:102FD000536F6674776172652052657365740A0079
:102FE000205761746368646F672052657365740A63
:102FF000002042726F776E206F7574205265736582
:10300000740A002045787465726E616C2052657395
:1030100065740A00506F77657255700A00737461A9
:1030200072740A004732385859004D31303031003F
:103030006F6B006572726F722077726974696E6768
:1030400020746F2066696C650A00446F6E6520739A
:103050006176696E672066696C652E0A00456E644C
:1030600073746F707300255320256320256320251A
:103070006320256300205A3A0020593A0020583A2C
:1030800000656E6473746F7073206869743A200011
:1030900000002200250028002B002E003100340003
:1030A00002010000050108010B01050505050705E2
:1030B00008080808020202020A0A080804040404B4
:1030C00001010101010101010303030303030303E0
:1030D000040707070C0C0C0C0C0C0C0C020202026F
:1030E00006060606060606060B0B0B0B0B0B0B0B58
:1030F000010210202008081020401020408002010A
:1031000002010804020101020408102040808040EE
:1031100020100804020180040201804020100804ED
:10312000020108040201010204081020408001028B
:1031300004081020408000000A0B02090C0D0E0844
:103140000703040100000000000000000000000070
:10315000000000000000000000000000000000006F
:10316000000012111000000000000000000000002C
:1031700000000000000000000000000024F404D95A
:10318000201BC40C5C0E9804C4095F026507710122
:10319000F405F900FB04B30048048700C10369008B
:1031A0005803550003034500BE023A008402310073
:1031B00053022A002902250004022000E4011C0019
:1031C000C8011900AF011700980114008401130011
:1031D000710110006101100051010E0043010D004A
:1031E00036010B002B010B0020010B00150109001B
:1031F0000C01090003010800FB000800F3000800AF
:10320000EB000700E4000600DE000600D800060020
:10321000D2000600CC000500C7000500C200050072
:10322000BD000400B9000400B5000400B1000400B2
:10323000AD000400A9000400A5000300A2000300E3
:103240009F0004009B00030098000300950002000B
:1032500093000300900003008D0002008B00030028
:103260008800020086000200840003008100020042
:103270007F0002007D0002007B0002007900020056
:103280007700010076000200740002007200010065
:10329000710002006F0002006D0001006C0002006E
:1032A0006A00010069000200670001006600010079
:1032B000650001006400020062000100610001007D
:1032C000600001005F0002005D0001005C00010081
:1032D0005B0001005A000100590001005800010084
:1032E0005700010056000100550001005400010084
:1032F0005300000053000100520001005100010082
:10330000500001004F0001004E0000004E0001007F
:103310004D0001004C0001004B0000004B0001007B
:103320004A00010049000100480000004800010077
:103330004700010046000000460001004500000073
:10334000450001004400010043000000430001006B
:103350004200000042000100410000004100010065
:10336000400001003F0000003F0001003E0000005F
:103370003E0001003D0000003D0001003C00000057
:103380003C0000003C0001003B0000003B0001004D
:103390003A0000003A000100390000003900010045
:1033A000380000003800000038000100370000003D
:1033B0003700010036000000360000003600010032
:1033C0003500000035000000350001003400000029
:1033D000340000003400010033000000330000001E
:1033E0003300010032000000320000003200010012
:1033F0003100000031000000310001003000000009
:1034000030000000300001002F0000002F000000FD
:103410002F0000002F0001002E0000002E000000F1
:103420002E0001002D0000002D0000002D000000E6
:103430002D0001002C0000002C0000002C000000DA
:103440002C0001002B0000002B0000002B000000CE
:103450002B0001002A0000002A0000002A000000C2
:103460002A000100290000002900000029000000B6
:1034700029000000290001002800000028000000A9
:10348000280000002800000028000100270000009C
:10349000270000002700000027000000270001008F
:1034A0002600000026000000260000002600000084
:1034B0002600010025000000250000002500000076
:1034C0002500000025000000250001002400000068
:1034D000240000002400000024000000240001005B
:1034E0002300000023000000230000002300000050
:1034F0002300000023000000230001002200000040
:103500002200000022000000220000002200000033
:103510002200010021000000210000002100000025
:103520002100000021000000210000002100010016
:10353000200000002000000020000000200000000B
:1035400020000000200000002000000020000100FA
:103550001F0000001F0000001F0000001F000000EF
:103560001F0000001F0000001F0001001E000000DF
:103570001E0000001E0000001E00000024F4D430D5
:1035800050C38E20C2A24017828B7011127A910D07
:10359000816CD90AA861E108C758660761514306E2
:1035A0001E4B5D05C145A7041A411104093D98034E
:1035B000713931034036DB0265339102D430540255
:1035C000802E1D02632CEE01752AC501B028A001D2
:1035D000102781018F2564012B244B01E022340147
:1035E000AC211F018D200D01801FFC00841EED0009
:1035F000971DDF00B81CD200E61BC600201BBC00D4
:10360000641AB200B219A8000A19A0006A18990039
:10361000D117910040178B00B516840031167E003B
:10362000B31579003A157300C7146F0058146A0077
:10363000EE1366008813630025135E00C7125B005B
:103640006C12570015125400C111510070114F0037
:1036500021114B00D61049008D1047004610440040
:1036600002104200C00F4000800F3E00420F3C009D
:10367000060F3B00CB0E3800930E37005C0E350072
:10368000270E3400F30D3200C10D3100900D3000D3
:10369000600D2E00320D2D00050D2C00D90C2B00D5
:1036A000AE0C2900850C29005C0C2700350C270086
:1036B0000E0C2600E80B2400C40B2400A00B2300F2
:1036C0007D0B23005A0B2100390B2100180B200021
:1036D000F80A1F00D90A1E00BB0A1E009D0A1D0021
:1036E000800A1D00630A1C00470A1B002C0A1B00ED
:1036F000110A1A00F7091A00DD091900C409190096
:10370000AB091900920917007B091800630917001B
:103710004C09160036091600200916000A09150082
:10372000F5081500E0081400CC081400B8081400CF
:10373000A4081400900813007D0812006B08130001
:10374000580812004608120034081100230811001E
:103750001208110001081100F0071000E007100026
:10376000D0071000C0071000B0070F00A10710001D
:1037700091070E0083070F0074070F0065070E0006
:1037800057070E0049070E003B070D002E070E00DD
:1037900020070D0013070D0006070D00F9060C00A9
:1037A000ED060D00E0060C00D4060C00C8060C0067
:1037B000BC060C00B0060C00A4060B0099060C0019
:1037C0008D060B0082060B0077060B006C060B00C3
:1037D00061060A0057060B004C060A0042060A0062
:1037E00038060A002E060A0024060A001A060A00F5
:1037F0001006090007060A00FD050900F405090086
:10380000EB050900E2050900D9050900D00509000A
:10381000C7050900BE050900B5050800AD0508008B
:10382000A50509009C050800940508008C05080002
:10383000840508007C050800740508006C05070075
:10384000650508005D050700560508004E050700E0
:103850004705070040050800380507003105070047
:103860002A050700230507001C05060016050700AA
:103870000F0507000805060002050700FB04060007
:10388000F5040700EE040600E8040600E204070061
:10389000DB040600D5040600CF040600C9040600B8
:1038A000C3040600BD040600B7040600B104050009
:1038B000AC040600A6040600A00405009B04060054
:1038C00095040500900406008A040500850405009F
:1038D000800406007A0405007504050070040500E4
:1038E0006B04050066040500610405005C04050026
:1038F00057040500520405004D0405004804050066
:10390000430405003E0404003A04050035040500A4
:10391000300404002C0405002704040023040500DF
:103920001E0404001A040400160405001104040017
:103930000D0404000904050004040400000404004C
:10394000FC030400F8030400F4030400F003040083
:10395000EC030400E8030400E4030400E0030400B3
:10396000DC030400D8030400D4030400D0030400E3
:10397000CC030400C8030300C50303007229000040
:10398000F31F0000EA150000780D00009907000001
:103990000F0400001A020000120100004D6F76654E
:1039A00020246D6D00302E303235004D6F7665204D
:1039B000302E316D6D004D6F766520316D6D004D8F
:1039C0006F76652031306D6D004D6F766520302E3D
:1039D000303031696E004D6F766520302E303169A0
:1039E0006E004D6F766520302E31696E004D6F761A
:1039F000652041786973004D6F7665202A004D6F10
:103A00007665204000200020002000200020004893
:103A10006F6D696E67204661696C656400FFFF0128
:103A200043616E6E6F74206F70656E207375626493
:103A300069722000220A00556E6B6E6F776E2063EC
:103A40006F6D6D616E643A202200204500205A009F
:103A500020590020204D393220580053746570736E
:103A60002070657220756E697400627573793A20F2
:103A700070617573656420666F7220696E7075740D
:103A80000A00627573793A20706175736564206607
:103A90006F7220757365720A00627573793A2070CF
:103AA000726F63657373696E670A004D656469615F
:103AB0002052656D6F766564004D656469612049CB
:103AC0006E736572746564004D31313220536875D0
:103AD00074646F776E0053544F505045442E20004D
:103AE0005072696E7465722073746F7070656420B3
:103AF00064756520746F206572726F72732E204634
:103B0000697820746865206572726F7220616E64D6
:103B100020757365204D39393920746F20726573B3
:103B2000746172742E202854656D706572617475AD
:103B300072652069732072657365742E20536574F5
:103B40002069742061667465722072657374617295
:103B500074696E67290A004E6F20436865636B7352
:103B6000756D2077697468206C696E65206E756D5F
:103B70006265722C204C617374204C696E653A202A
:103B8000004D3239004E6F20436865636B73756D6D
:103B90002077697468206C696E65206E756D62654A
:103BA000722C204C617374204C696E653A2000635E
:103BB0006865636B73756D206D69736D617463689F
:103BC0002C204C617374204C696E653A20004C695E
:103BD0006E65204E756D626572206973206E6F741C
:103BE000204C617374204C696E65204E756D626562
:103BF000722B312C204C617374204C696E653A2015
:103C0000004D3131300053657269616C207374610D
:103C1000747573206D69736D617463680A00534431
:103C20002072656164206572726F720A004B494CA4
:103C30004C20627574746F6E2F70696E0A002121BA
:103C4000204B494C4C206361757365642062792078
:103C500000746F6F206D75636820696E61637469AD
:103C600076652074696D65202D2063757272656EAE
:103C70007420636F6D6D616E643A20002121204BCA
:103C8000494C4C206361757365642062792000DBC8
:103C90000FC93F45BCDA3F8FB30240FCF0274056C6
:103CA000946140FE4B9B4084A5D840E023184134EA
:103CB0006A5641E859974164DBD5416E271742B4F3
:103CC000B75542CE1A9742C8AED542B5885A43D4AA
:103CD0000684BFA65FA7BF7443E0BF10B11AC01C23
:103CE0002C58C0E8F697C0B849D6C04E4E17C1242C
:103CF000D355C1802497C1A0B5D5C1121A17C244AB
:103D0000AE55C2781797C26CACD5C267885AC3202B
:103D1000746F6F206C6F6E6720657874727573694D
:103D20006F6E2070726576656E7465640A0020633C
:103D30006F6C6420657874727573696F6E20707231
:103D40006576656E7465640A006F6B0A0052657370
:103D5000656E643A200020453A00205A3A00205906
:103D60003A00583A004572726F722077726974692E
:103D70006E6720746F20454550524F4D210A004315
:103D80004B44203344205072696E74657220526532
:103D90006164792E005072696E74696E672E2E2EE2
:103DA000005072696E742050617573656400B5EBE4
:103DB000E0F411241FBECFEFD1E2DEBFCDBF00E0A3
:103DC0000CBF84B78093C21514BE0FB6F894A895A3
:103DD00080916000886180936000109260000FBE47
:103DE00013E0A0E0B2E0E8EFF5E002E00BBF02C0B4
:103DF00007900D92A837B107D9F725E1A8E7B3E0FE
:103E000001C01D92A23CB207E1F71EE1C8EDDEE160
:103E100000E006C021970109802FFE010F945E0289
:103E2000C73DD10780E00807A9F70E94FDEC0D947B
:103E3000EA020C94000060911D0270911E02072E90
:103E4000000C880B990B0E9472F92AE037ED43E2CF
:103E50005CE30E94D1F92091B8053091B9054091F9
:103E6000BA055091BB050E94D1F960935E02709330
:103E70005F028093600290936102089580913607FB
:103E8000811104C0809114078093E7070895CF93B0
:103E9000DF93EC01642F70E090E080E00E9472F903
:103EA00029EC38EC48EC5EE30E94BCFE20E030E0F8
:103EB00040E05FE30E94C2FD0E9435FF6883DF910E
:103EC000CF910895E091360786E0E802F0011124D1
:103ED000EF5FF84F8091140790E0958384830895F5
:103EE0008F929F92AF92BF92CF92DF92EF92FF920A
:103EF000CF936B017C0120E030E0A9010E946BF9B7
:103F000087FDD6C06DEB77E386E095E3A7019601C8
:103F10000E94C2FD6B017C0120E030E0A9010E94FB
:103F20006BF987FFCAC0C701B601905820E030E0A6
:103F300040E251E40E94D1F920E030E048EC52E444
:103F40000E94D1F920E030E040EA50E40E94C2FD36
:103F500020E030E040E251E40E94BCFE0E942EFFCF
:103F60006B017C0160E280E4C81682E4D8068FE031
:103F7000E806F1048CF0C701B60120E432E44FE01A
:103F800050E00E9480FDCA01B9012AE030E040E023
:103F900050E00E9480FD605D60938F0560E280EAE2
:103FA000C81686E8D80681E0E806F1048CF0C7015F
:103FB000B60120EA36E841E050E00E9480FDCA01E7
:103FC000B9012AE030E040E050E00E9480FD605DF1
:103FD0006093900560E280E1C81687E2D806E104AC
:103FE000F1048CF0C701B60120E137E240E050E077
:103FF0000E9480FDCA01B9012AE030E040E050E0B3
:104000000E9480FD605D6093910560E288EEC816B5
:1040100083E0D806E104F1048CF0C701B60128EE74
:1040200033E040E050E00E9480FDCA01B9012AE07F
:1040300030E040E050E00E9480FD605D60939205BA
:10404000C701B60124E630E040E050E00E9480FD68
:104050008AE0882E912CA12CB12CCA01B901A501AE
:1040600094010E9480FD605D609393058EE28093D1
:104070009405C701B601A50194010E9480FDC62FD9
:10408000CA01B901A50194010E9480FD605D6093A1
:104090009505C05DC09396058FE895E0CF91FF90A0
:1040A000EF90DF90CF90BF90AF909F908F9008954A
:1040B0006DEB77E386E095EB29CF20E030E040E23E
:1040C00051E4C701B60136CF8F929F92AF92BF9253
:1040D000CF92DF92EF92FF92CF936B017C0120E0B1
:1040E00030E0A9010E946BF987FD93C06DEB77E387
:1040F00086E095E3A70196010E94C2FD6B017C0159
:1041000020E030E040E251E40E94D1F920E030E0CC
:104110004AE754E40E94D1F94B015C0120E030E011
:10412000A901C701B6010E946BF920E030E040EA26
:1041300050E487FF04C020E030E040EA50ECC501C5
:10414000B4010E94C2FD20E030E040E251E40E9450
:10415000BCFE0E942EFF6B017C01C114D104E1045E
:10416000F10409F45BC0F7FE59C0F094E094D094D8
:10417000C094C11CD11CE11CF11C8DE280939105FF
:10418000C701B60128EE33E040E050E00E9480FD18
:104190008AE0882E912CA12CB12CCA01B901A5016D
:1041A00094010E9480FD605D609392058EE2809391
:1041B0009305C701B60124E630E040E050E00E94DC
:1041C00080FDCA01B901A50194010E9480FD605DD6
:1041D00060939405C701B601A50194010E9480FD7A
:1041E000C62FCA01B901A50194010E9480FD605D3E
:1041F00060939505C05DC093960581E995E0CF91E8
:10420000FF90EF90DF90CF90BF90AF909F908F90F6
:1042100008956DEB77E386E095EB6CCF80E2AECF4F
:10422000CF93DF93EC01CB01BA010E9472F920E039
:1042300030E048EC52E40E94BCFE2FE632E143E855
:104240005AE30E94C2FD688379838A839B83DF914E
:10425000CF910895CF93DF93EC01CB01BA010E9477
:1042600072F920E030E048EC52E40E94BCFE2FE6F8
:1042700032E143E85AE30E94C2FD688379838A836E
:104280009B83DF91CF9108950E9472F920E030E086
:1042900048EC52E40E94BCFE2FE632E143E85AE3C8
:1042A0000E94C2FD0C94701FCF93DF93EC01CB01F1
:1042B000BA010E9470F92AE037ED43E25DE30E9403
:1042C000BCFE0E9435FF688379838A839B83DF91DC
:1042D000CF910895CF93DF93EC01CB01BA010E94F7
:1042E00072F92AE037ED43E25DE30E94BCFE688389
:1042F00079838A839B83DF91CF910895CF93DF9356
:10430000EC01CB01BA010E9472F9688379838A8338
:104310009B83DF91CF910895FC01518340830895E1
:10432000CF93DF93EC01CB01BA010E9472F920E038
:1043300030E04AE754E40E94BCFE27E137EB41ED50
:1043400058E30E94C2FD688379838A839B83DF914F
:10435000CF9108950E9472F920E030E04AE754E4DA
:104360000E94BCFE27E137EB41ED58E30E94C2FDFD
:104370000C946420FC0184910895FC0180810895CF
:10438000FC01A081B1811C92A281B3818C918F5FCD
:104390008C930280F381E02D90818CE0989F800DBA
:1043A0001124EDEDF3E113AE84AF0895009751F0C1
:1043B000FC0180E09191992331F0907C9038D1F309
:1043C0008F5FF8CF80E00895119800C090910201AE
:1043D00087FD9095917090930001119A00C000C0E4
:1043E000119800C09091020186FD90959170909374
:1043F0000001119A00C000C0119800C09091020104
:1044000085FD9095917090930001119A00C000C0B5
:10441000119800C09091020184FD90959170909345
:104420000001119A00C000C0119800C090910201D3
:1044300083FD9095917090930001119A00C000C087
:10444000119800C09091020182FD90959170909317
:104450000001119A00C000C0119800C090910201A3
:1044600081FD9095917090930001119A00C000C059
:10447000119800C080910201817080930001119A0F
:1044800000C000C0089590E080E00895CF93DF93CE
:10449000C0916213D091631381E0CE31D105E4F075
:1044A00020E030E040E05FE360915E1370915F13C5
:1044B00080916013909161130E94C2FD0E942EFFB3
:1044C0006C1B7D0B77FF03C071956195710981E0CD
:1044D000633071050CF080E0DF91CF91089590E09A
:1044E00080E008952091E004833021F425FD0CC084
:1044F00024FD0CC030E0A90102C0559547958A956E
:10450000E2F7CA018170089581E0089580E008957E
:104510008091FB0484FD0BC08091FD0487FD07C0E2
:104520009091FE04937081E019F480E0089581E099
:1045300008952FEB280F2A3108F047C0E22FF0E052
:104540008091FB049091FC04A091FD04B091FE04C5
:1045500004C0B695A795979587952A95D2F780FDC3
:1045600002C081700895EF51FB4FE081EE2341F1CD
:104570008091C0079091C107E80FF92FF11D80814C
:1045800090ED980F9A3030F08E3251F48181805343
:104590008A3098F4F093DF04E093DE0481E008951C
:1045A0008D3211F08B3249F4818190ED980F9A3061
:1045B00088F38E3211F48281EACFF0E0E0E0EACFB6
:1045C0001092DF041092DE04E9CF80E008950E948B
:1045D0009922882341F081E02091DE043091DF04AC
:1045E000232B09F480E008958091A412813069F0B2
:1045F0009091341592FB882780F992FF07C097FBB2
:10460000882780F991E08927089581E008958091B5
:10461000B5139091B613891B8F7011F40C94F4228A
:1046200081E008950F931F93CF93DF938C01EB01EB
:104630009091C9132091CA13921305C00E946FB7BD
:104640000E94ED97F5CF8091C81334E0839FF0016D
:104650001124E553FC4E11830083D383C2839F5FF3
:104660009093C9138F5F281739F08093C813DF9197
:10467000CF911F910F9108951092C813F8CF63E95D
:1046800072E084E690E00E94122370E060E08AE02D
:1046900090E00E9412236AEB72E084E690E00C94B2
:1046A000122381110C943F2368E270E080E991E0CD
:1046B0000C941223CF92DF92EF92FF92CF93C82FE8
:1046C0000E9475CA6B017C0124EA30E74DE75FE385
:1046D00060911702709118028091190290911A024C
:1046E0000E946BF987FD18C08AEF90E0A0E0B0E06F
:1046F0008C0D9D1DAE1DBF1D809337059093380511
:10470000A0933905B0933A05C0931502CF91FF905D
:10471000EF90DF90CF90089580E090E0DC01E8CF4B
:10472000CF92DF92EF92FF920F931F930E9475CA70
:104730000091090510910A0520910B0530910C0597
:104740006B017C01C01AD10AE20AF30A97018601C3
:1047500037FD11C0209108052095209308056A5463
:104760007C4F8F4F9F4F6093090570930A0580938C
:104770000B0590930C0581E090910805911101C003
:1047800080E01F910F91FF90EF90DF90CF90089500
:10479000CF93DF93C0916213D0916313209729F1D7
:1047A00060915E1370915F1380916013909161131B
:1047B0000E942EFF6E5F7F4F24976C177D07ACF42D
:1047C0007093CB056093CA050E9475CA605A754103
:1047D0008F4F9F4F6093CC057093CD058093CE058E
:1047E0009093CF05DF91CF9108951092CC05109250
:1047F000CD051092CE051092CF05F4CFCB010C94CD
:104800000FB770E090E080E00E9472F929EC38EC7C
:1048100048EC5EE30E94BCFE20E030E040E05FE355
:104820000E94C2FD0E9435FF862F0C9444B7CF939F
:10483000DF93CDB7DEB720E2488559856F818E8141
:104840000E9463C6DF91CF910895609114078FEFA6
:104850000C9468E980911407682F0C9468E96FEF55
:10486000809114070C9468E96FE37DE382E00C9477
:10487000B2E962E47DE381E00C94B2E965E47DE3B2
:1048800080E00C94B2E96DE67BE383E00C94B2E93E
:10489000809129158823D1F0815080932915EDE26C
:1048A000F3E1882351F08150990B2BE1289FF0010F
:1048B000299FF00D1124E55EFB4E8BE1A2E1B3E1EF
:1048C00001900D928A95E1F70E942DD02091291533
:1048D000211105C08091341580648093341581E0E6
:1048E00090E0A0E0B0E0211103C080E090E0DC01A6
:1048F00080931F0790932007A0932107B09322076E
:104900001092180781E080932F0783E080934E0276
:10491000089580914E02882341F06091890570913D
:104920008A0541E081E00C94FEC508950E94589BE1
:104930000C9451230E942ABD0C9451230E94A2B0D2
:104940000C943F23CF93DF9300D01F92CDB7DEB7F7
:104950000E9470F969837A838B839C83CE010196D0
:104960000E944EB20F900F900F900F90DF91CF9159
:1049700008950E9470F92AE037ED43E25DE30E945A
:10498000BCFE0E9435FF0C94A224CF92DF92EF92DE
:10499000FF92CF93DF9300D01F92CDB7DEB76B01AC
:1049A0007C0120E030E0A9010E946BF987FD1BC06B
:1049B0006DEB77E386E095E3A70196010E94C2FDC7
:1049C00069837A838B839C83CE0101960E944EB2C9
:1049D0000F900F900F900F90DF91CF91FF90EF907D
:1049E000DF90CF9008956DEB77E386E095EBE4CF11
:1049F0000E9472F92AE037ED43E25DE30E94BCFEBB
:104A00000C94C5240E9472F90C94C524CF92DF92B5
:104A1000EF92FF92CF93DF9300D01F92CDB7DEB716
:104A20000E9472F920E030E048EC52E40E94BCFEA3
:104A30002FE632E143E85AE30E94C2FD6B017C019C
:104A400020E030E0A9010E946BF92DEB37E346E04E
:104A500055E387FF04C02DEB37E346E055EBC70174
:104A6000B6010E94C2FD69837A838B839C83CE0149
:104A700001960E94D5B50F900F900F900F90DF9187
:104A8000CF91FF90EF90DF90CF9008950C94BC9E53
:104A90000C94BC9E0C946E9E0C946E9E0C946E9E18
:104AA0000C946E9EBF92CF92DF92EF92FF920F9383
:104AB0001F93CF93DF936B01E9014A3009F4EAC0F9
:104AC000453109F092C0DB011296ED91FC91128103
:104AD000C681D78180910201809582708093000108
:104AE00000C0000086E290E00197F0F7012F0295E8
:104AF000007F20E1B22EB10E88EF0E94E42100C0B9
:104B0000000086E290E00197F0F7103208F0ACC0A8
:104B1000812F807780680E94E421802F0E94E42109
:104B200000C0000086E290E00197F0F780E80E9464
:104B3000E42180E00E94E42100C0000086E290E0D1
:104B40000197F0F78AEF0E94E42100C0000086E29E
:104B500090E00197F0F77E01B0E1EB0EF11C888147
:104B6000807F0E94E42189918295807F0E94E421C8
:104B7000CE15DF05A1F700C0000086E290E00197A6
:104B8000F0F71F5F005F1B11B7CF809102018270A9
:104B900080930001D6011296ED91FC918081928163
:104BA000980F92832181921708F003C294819F5F2E
:104BB00094839381890F821710F08FEF820F838384
:104BC000458150E0440F551F70E060E08681978179
:104BD0000F94960281E0DF91CF911F910F91FF908A
:104BE000EF90DF90CF90BF900895FB010281138179
:104BF000423309F4E0C108F4E8C1463409F4D5C1F0
:104C0000473409F4DDC14B3329F789812B81D80161
:104C100012966C91129713964C91213009F41AC296
:104C2000233009F0FBC138EF380F582F91E04317BC
:104C300008F490E041E0531708F040E031E05617E7
:104C400008F430E0592F542B352319F4942309F438
:104C5000C1CFFA8030E0F901E056FD4FD0802456F4
:104C60003D4FF901E080F3C180EE810F8068807FC5
:104C70000E94E421812F8295807F0E94E42100C060
:104C8000000086E290E00197F0F780E80E94E421BE
:104C900080E850CF80910101826080930101809172
:104CA00002018270809300018091010181608093F4
:104CB000010180910201817080930001099A119A8B
:104CC00080910201809582708093000100C00000F5
:104CD00086E290E00197F0F788E790E0CEE9DFE028
:104CE000FE013197F1F70197D9F788EF0E94E4218F
:104CF00000C0000086E290E00197F0F780E20E9499
:104D0000E42180E00E94E42100C0000086E290E0FF
:104D10000197F0F780E00E94E42180E80E94E421FE
:104D200000C0000086E290E00197F0F780E00E946A
:104D3000E42180E10E94E42100C0000086E290E0CE
:104D40000197F0F7CE010197F1F7CE010197F1F746
:104D5000CE010197F1F7CE010197F1F7CE0101974E
:104D6000F1F7CE010197F1F7CE010197F1F7CE01EE
:104D70000197F1F7CE010197F1F7CE010197F1F715
:104D8000CE010197F1F7CE010197F1F7CE0101971E
:104D9000F1F7CE010197F1F72197F1F780E20E9438
:104DA000E42180E40E94E42100C0000086E290E05B
:104DB0000197F0F780E20E94E42180E60E94E4215E
:104DC00000C0000086E290E00197F0F7D0E0C0E07C
:104DD0008C2F807780680E94E4218D2F0E94E4212F
:104DE00000C0000086E290E00197F0F780E80E94A2
:104DF000E42180E00E94E42100C0000086E290E00F
:104E00000197F0F78AEF0E94E42100C0000086E2DB
:104E100090E00197F0F790E2119800C080910201B4
:104E2000817080930001119A00C000C0119800C0E9
:104E300080910201817080930001119A00C000C02E
:104E4000119800C080910201817080930001119A35
:104E500000C000C0119800C0809102018170809351
:104E60000001119A00C000C0119800C08091020199
:104E7000817080930001119A00C000C0119800C099
:104E800080910201817080930001119A00C000C0DE
:104E9000119800C080910201817080930001119AE5
:104EA00000C000C0119800C0809102018170809301
:104EB0000001119A00C000C0119800C08091020149
:104EC000817080930001119A00C000C0119800C049
:104ED00080910201817080930001119A00C000C08E
:104EE000119800C080910201817080930001119A95
:104EF00000C000C0119800C08091020181708093B1
:104F00000001119A00C000C0119800C080910201F8
:104F1000817080930001119A00C000C0119800C0F8
:104F200080910201817080930001119A00C000C03D
:104F3000119800C080910201817080930001119A44
:104F400000C000C0119800C0809102018170809360
:104F50000001119A00C000C000C00000E6E2F0E0CD
:104F60003197F0F7915009F057CF88EF0E94E42174
:104F700000C0000086E290E00197F0F7CF5FD05FBD
:104F8000C03209F025CF80E00E94E42180EC0E942D
:104F9000E42100C0000086E290E00197F0F78091E4
:104FA000020182708093000115CEF801858188830B
:104FB00011CE80E010CEB901C8010E94EDCA0ACE20
:104FC000D80111968C91888305CE443191F04731F8
:104FD00009F000CE1882D80112968C91129789831D
:104FE00015968C91159781508A8313968C918B839B
:104FF000F1CDD80115964C91159750E0440F551FEF
:1050000070E060E016968D919C910F949602F801E5
:1050100012828081815083831482DCCD481708F48A
:10502000D9CD861708F4D6CDFA80E12CD12C2430C6
:1050300070F410CEBE01C8010E94EDCA898198812A
:105040009D0D98838E0D8983FF0C09F4C3CDF7FE67
:10505000F6CFF0CF58E0580F382FE8CDEF92FF92FF
:105060000F931F93CF93DF93EC018B017A018A8515
:105070009B858617970731F0888199810E9431CDF1
:105080001B870A87B701888199810E94B6C62E8145
:105090003F81820F932F911D9F838E8390E080E04C
:1050A000DF91CF911F910F91FF90EF9008959F9204
:1050B000AF92BF92CF92DF92EF92FF920F931F9326
:1050C000CF93DF93EC018B01942EA52E8A859B85CF
:1050D0008617970731F0888199810E9431CD1B870F
:1050E0000A8788859985019649F5BC800A818E8159
:1050F000080FC880D980D6015596ED91FC91C60164
:105100001995B80EE92CFA2C10E0F70121917F01D6
:10511000211127C08E819F81810F911D9F838E83D6
:1051200090E080E0DF91CF911F910F91FF90EF9081
:10513000DF90CF90BF90AF909F9008950E811F8118
:10514000692D7A2D888199810E94B6C6800F912F92
:10515000911D288539852817390738F681E090E0B8
:10516000E1CF4B2D602FC6010E9489CD080F180F8B
:10517000CCCFDF92EF92FF920F931F93CF93DF93E9
:10518000EC01D62E1CAD0BAD7C0184E0E80EF11CC9
:10519000E98DFA8DC7011995412F480F2D2D602FEC
:1051A000C7010E9489CD9BAD890F8BAF81E090E054
:1051B000DF91CF911F910F91FF90EF90DF900895B5
:1051C0002F923F924F925F926F927F928F929F9217
:1051D000AF92BF92CF92DF92EF92FF920F931F9305
:1051E000CF93DF93CDB7DEB72D970FB6F894DEBF20
:1051F0000FBECDBF0E94F422882309F46CC00E9428
:10520000AFB14B015C0145E050E060E270E081E14C
:1052100095E00F94960285E480930F058AE38093CE
:105220001005C501B40120E13EE040E050E00E94DD
:105230005EFDD22EC32E022F132F8CE3282E312C8D
:10524000412C512CC501B401A20191010E945EFDC7
:10525000762E672ECA01B901A20191010E945EFD5E
:105260009E012F5F3F4F790130E8831631E59306A9
:1052700031E0A306B10408F447C07F936F93C801DF
:1052800068E170E00F9436029F938F93C501B401DB
:1052900020E831E541E050E00E945EFD3F932F930E
:1052A00084E39EE09F938F93FF92EF920E9402F916
:1052B000C7010E94B8F80FB6F894DEBF0FBECDBF8D
:1052C0002CE030E0A901481B5109CA01B701815FF8
:1052D0009A4F0F94BB022D960FB6F894DEBF0FBE07
:1052E000CDBFDF91CF911F910F91FF90EF90DF9095
:1052F000CF90BF90AF909F908F907F906F905F9076
:105300004F903F902F9008950115110599F46F92D9
:105310007F927F936F9388E29EE09F938F93FF929B
:10532000EF920E9402F90FB6F894DEBF0FBECDBF18
:1053300085E0C6CF0436110538F47F936F93CF9282
:10534000DF928CE19EE0E9CF7F936F93CF92DF9263
:1053500082E19EE09F938F93FF92EF920E9402F969
:105360000FB6F894DEBF0FBECDBF86E0A9CFCF93B6
:10537000C0911D05CC2391F14CE050E060E270E05B
:105380008FE095E00F94960280E2C43628F08C2FCF
:1053900064E60F941C02805D8093940590E2CA300D
:1053A00040F02AE08C2F622F0F941C020F941C02F5
:1053B000905D909395058C2F6AE00F941C02905D90
:1053C0009093960583E0E4E9F5E0A3E1B5E0019070
:1053D0000D928A95E1F785E280931605CF910895A5
:1053E000CF92DF92EF92FF920F931F93CF93DF93B1
:1053F000CDB7DEB72C970FB6F894DEBF0FBECDBF8A
:10540000F0901814E09019142091070521111DC087
:105410004CEC5DE06E2D8F2D0E94F5CD90E080E08C
:10542000F80EF0921814E092191499272C960FB6E2
:10543000F894DEBF0FBECDBFDF91CF911F910F91CA
:10544000FF90EF90DF90CF900895C090E513D0903B
:10545000E61321EE33E13A8329832F2D30E03C839C
:105460002B832E2D30E03E832D8318861F827A8772
:1054700069871C861B8607E518E29E012F5F3F4F58
:105480004AEB51E2BC01C6010E9403C0B60181EEA5
:1054900093E10E9431CD8F819885C2CF8091DE0447
:1054A0009091DF04009731F04AE050E070E060E056
:1054B0000C9486F760E070E0CB0108958091DE04E3
:1054C0009091DF04009731F04AE050E070E060E036
:1054D0000C9458F660E070E0CB0108950E945E2ABB
:1054E000CB0108950E945E2A97FD0CC00E945E2A9F
:1054F0006F3F71058105910509F034F40E945E2A21
:10550000862F089580E008958FEF08958091DE043E
:105510009091DF04892B41F00E94722A91E0811161
:1055200001C090E0892F089591E0FCCFCF93DF93E5
:10553000C82FD62F0E94E722882321F0DF91CF9138
:105540000C94862A8C2F0E949922811101C08D2FE4
:10555000DF91CF9108950F931F93CF938091DE0435
:105560009091DF04009709F1FC018F01C1912C2F6C
:105570002F7DA1F0C53431F0C53621F0C83511F0CA
:10558000C83799F7F801108270E060E00E94FAF4E1
:10559000F801C083CF911F910F91089570E060E0F2
:1055A000CF911F910F910C94FAF460E070E0CB0161
:1055B000F1CFCF93C82F0E94AB2AC33080F0209147
:1055C0004107222361F020913D0730913E07409131
:1055D0003F07509140070E94D1F9CF910895209143
:1055E0004207309143074091440750914507F3CF5C
:1055F0000E94AB2A20914207309143074091440713
:10560000509145070E94D1F908954F925F926F9291
:105610007F92AF92BF92CF92DF92EF92FF920F9361
:105620001F93CF9388E9A82E82E0B82E98EAE92E3E
:1056300095E0F92E02E612E02EE6C22E22E1D22EED
:10564000C0E0F50181915F010E94E722882309F4FF
:1056500080C08C2F0E94D92A2B013C018C2F0E94E4
:105660007222882309F46BC0F801208131814281C4
:105670005381C301B2010E94C2FDF70160837183AF
:1056800082839383CF5FF4E0EF0EF11C0C5F1F4F1A
:1056900084E0C80ED11CC330A1F685E40E94E72245
:1056A000882309F461C083E00E94D92A6B017C0140
:1056B00083E00E947222882371F020916E02309163
:1056C0006F024091700250917102C701B6010E94B1
:1056D000C2FD6B017C01C092B405D092B505E09289
:1056E000B605F092B70586E40E94E7228823C9F048
:1056F0000E94AB2A20E030E0A9010F942200181686
:1057000084F40E94F82A20E030E040E752E40E944E
:10571000BCFE609308027093090280930A02909382
:105720000B02CF911F910F91FF90EF90DF90CF90E0
:10573000BF90AF907F906F905F904F900895F6016B
:105740002081318142815381C301B2010E94C1FD98
:1057500094CFF80180819181A281B381F701808388
:105760009183A283B3838ECF80916E0290916F025A
:10577000A0917002B09171028093B4059093B50529
:10578000A093B605B093B705AECFCF93DF93C0918A
:105790008E13D0918F13209729F160918A13709105
:1057A0008B1380918C1390918D130E942EFF6E5F4E
:1057B0007F4F24976C177D07ACF47093D2056093EC
:1057C000D1050E9475CA605C73468F4F9F4F6093EE
:1057D000D3057093D4058093D5059093D605DF91BA
:1057E000CF9108951092D3051092D4051092D5054B
:1057F0001092D605F4CF0C94C52B0F931F93522F04
:105800002091DB133091DC132817390749F11092EE
:10581000BC059093DC138093DB138B0130E020E018
:1058200000931F071093200720932107309322072E
:1058300040931807509319078759914521F4109206
:105840004B071092880582E080934E0281E080939E
:105850002F0710928C058FEF80934C0210928B05CE
:105860001F910F91089520E040E070E060E083E434
:1058700094E20C94FD2B0E94469E882341F020E088
:1058800040E070E060E083E995E30C94FD2B0C941C
:10589000332CCF93C1E0C0934B07FC0180819181F1
:1058A000A281B3818093170290931802A0931902EA
:1058B000B0931A0220E040E070E060E080911207AF
:1058C000909113070E94FD2BC093BC05CF910895C2
:1058D000CF93DF9300D01F92CDB7DEB78DEC9CEC59
:1058E000ACECBCE389839A83AB83BC83CE01019685
:1058F0000E94492C0F900F900F900F90DF91CF9145
:105900000895CF93DF9300D01F92CDB7DEB78DEC13
:105910009CECACECBDE389839A83AB83BC83CE0162
:1059200001960E94492C0F900F900F900F90DF91DD
:10593000CF910895CF93DF9300D01F92CDB7DEB7FC
:1059400080E090E0A0E8BFE389839A83AB83BC83C7
:10595000CE0101960E94492C0F900F900F900F904E
:10596000DF91CF910895CF93DF9300D01F92CDB7F1
:10597000DEB780E090E0A0E2B1E489839A83AB8354
:10598000BC83CE0101960E94492C0F900F900F907E
:105990000F90DF91CF910895CF93DF9300D01F92A6
:1059A000CDB7DEB78AEA93E1A0EDBCE389839A83A1
:1059B000AB83BC83CE0101960E94492C0F900F90BF
:1059C0000F900F90DF91CF910895CF93DF9300D088
:1059D0001F92CDB7DEB789E49CE0A2E8BEE38983DD
:1059E0009A83AB83BC83CE0101960E94492C0F9011
:1059F0000F900F900F90DF91CF910895CF93DF9389
:105A000000D01F92CDB7DEB78CE59FE8A2E2B0E4EC
:105A100089839A83AB83BC83CE0101960E94492C73
:105A20000F900F900F900F90DF91CF91089520E08D
:105A300040E070E060E087E991E50C94FD2B109266
:105A4000E7070E94B7950C94172D8CE792E10E940E
:105A50009A8B0E94172D0C9468C0CF930E94A2B01D
:105A60000E94589BC82F882319F080E00E949B9ABF
:105A70008C2F0E945123CF910C94172D84E990E133
:105A80009093BF068093BE060C94172DCF93DF939F
:105A9000C0918805CC23B9F0C150C093880589E036
:105AA000C89FE0011124CE5ADA4F6A817B812F8191
:105AB0004E81888199810E94FD2B888580934B07B8
:105AC000DF91CF910895DF91CF910C94172D4F92D4
:105AD0005F926F927F928F929F92AF92BF92CF927E
